{
  "_format": "hh-sol-artifact-1",
  "contractName": "MerkleVoting",
  "sourceName": "contracts/MerkleVoting.sol",
  "abi": [
    {
      "inputs": [],
      "stateMutability": "nonpayable",
      "type": "constructor"
    },
    {
      "anonymous": false,
      "inputs": [
        {
          "indexed": false,
          "internalType": "uint256",
          "name": "candidateId",
          "type": "uint256"
        },
        {
          "indexed": false,
          "internalType": "string",
          "name": "name",
          "type": "string"
        }
      ],
      "name": "CandidateAdded",
      "type": "event"
    },
    {
      "anonymous": false,
      "inputs": [
        {
          "indexed": false,
          "internalType": "bytes32",
          "name": "leaf",
          "type": "bytes32"
        },
        {
          "indexed": false,
          "internalType": "bytes32[]",
          "name": "merkleProof",
          "type": "bytes32[]"
        },
        {
          "indexed": false,
          "internalType": "bytes32",
          "name": "newRoot",
          "type": "bytes32"
        },
        {
          "indexed": false,
          "internalType": "bool",
          "name": "isValidProof",
          "type": "bool"
        }
      ],
      "name": "DebugMerkleProof",
      "type": "event"
    },
    {
      "anonymous": false,
      "inputs": [
        {
          "indexed": false,
          "internalType": "bytes32",
          "name": "merkleRoot",
          "type": "bytes32"
        }
      ],
      "name": "MerkleRootUpdated",
      "type": "event"
    },
    {
      "anonymous": false,
      "inputs": [
        {
          "indexed": false,
          "internalType": "uint256",
          "name": "candidateId",
          "type": "uint256"
        },
        {
          "indexed": false,
          "internalType": "string",
          "name": "name",
          "type": "string"
        },
        {
          "indexed": false,
          "internalType": "uint256",
          "name": "voteCount",
          "type": "uint256"
        }
      ],
      "name": "VoteCast",
      "type": "event"
    },
    {
      "anonymous": false,
      "inputs": [
        {
          "indexed": true,
          "internalType": "address",
          "name": "voter",
          "type": "address"
        },
        {
          "indexed": false,
          "internalType": "uint256",
          "name": "candidateId",
          "type": "uint256"
        }
      ],
      "name": "Voted",
      "type": "event"
    },
    {
      "inputs": [
        {
          "internalType": "string",
          "name": "name",
          "type": "string"
        }
      ],
      "name": "addCandidate",
      "outputs": [],
      "stateMutability": "nonpayable",
      "type": "function"
    },
    {
      "inputs": [],
      "name": "admin",
      "outputs": [
        {
          "internalType": "address",
          "name": "",
          "type": "address"
        }
      ],
      "stateMutability": "view",
      "type": "function"
    },
    {
      "inputs": [
        {
          "internalType": "uint256",
          "name": "",
          "type": "uint256"
        }
      ],
      "name": "candidateIds",
      "outputs": [
        {
          "internalType": "uint256",
          "name": "",
          "type": "uint256"
        }
      ],
      "stateMutability": "view",
      "type": "function"
    },
    {
      "inputs": [
        {
          "internalType": "uint256",
          "name": "",
          "type": "uint256"
        }
      ],
      "name": "candidates",
      "outputs": [
        {
          "internalType": "uint256",
          "name": "id",
          "type": "uint256"
        },
        {
          "internalType": "string",
          "name": "name",
          "type": "string"
        },
        {
          "internalType": "uint256",
          "name": "voteCount",
          "type": "uint256"
        }
      ],
      "stateMutability": "view",
      "type": "function"
    },
    {
      "inputs": [],
      "name": "getAllCandidatesDetails",
      "outputs": [
        {
          "internalType": "uint256[]",
          "name": "",
          "type": "uint256[]"
        },
        {
          "internalType": "string[]",
          "name": "",
          "type": "string[]"
        },
        {
          "internalType": "uint256[]",
          "name": "",
          "type": "uint256[]"
        }
      ],
      "stateMutability": "view",
      "type": "function"
    },
    {
      "inputs": [
        {
          "internalType": "address",
          "name": "",
          "type": "address"
        }
      ],
      "name": "hasVoted",
      "outputs": [
        {
          "internalType": "bool",
          "name": "",
          "type": "bool"
        }
      ],
      "stateMutability": "view",
      "type": "function"
    },
    {
      "inputs": [],
      "name": "merkleRoot",
      "outputs": [
        {
          "internalType": "bytes32",
          "name": "",
          "type": "bytes32"
        }
      ],
      "stateMutability": "view",
      "type": "function"
    },
    {
      "inputs": [
        {
          "internalType": "uint256",
          "name": "candidateId",
          "type": "uint256"
        },
        {
          "internalType": "bytes32[]",
          "name": "merkleProof",
          "type": "bytes32[]"
        },
        {
          "internalType": "bytes32",
          "name": "newMerkleRoot",
          "type": "bytes32"
        }
      ],
      "name": "vote",
      "outputs": [],
      "stateMutability": "nonpayable",
      "type": "function"
    }
  ],
  "bytecode": "0x60806040526001600555348015601457600080fd5b50336000806101000a81548173ffffffffffffffffffffffffffffffffffffffff021916908373ffffffffffffffffffffffffffffffffffffffff160217905550611745806100646000396000f3fe608060405234801561001057600080fd5b50600436106100885760003560e01c8063458936c21161005b578063458936c21461013d578063462e91ec14610159578063cba5cf9914610175578063f851a4401461019557610088565b8063030161301461008d57806309eef43e146100bd5780632eb4a7ab146100ed5780633477ee2e1461010b575b600080fd5b6100a760048036038101906100a291906109f4565b6101b3565b6040516100b49190610a30565b60405180910390f35b6100d760048036038101906100d29190610aa9565b6101d7565b6040516100e49190610af1565b60405180910390f35b6100f56101f7565b6040516101029190610b25565b60405180910390f35b610125600480360381019061012091906109f4565b6101fd565b60405161013493929190610bd0565b60405180910390f35b61015760048036038101906101529190610c9f565b6102af565b005b610173600480360381019061016e9190610e43565b6104bc565b005b61017d61062b565b60405161018c93929190611056565b60405180910390f35b61019d6108dd565b6040516101aa91906110b1565b60405180910390f35b600481815481106101c357600080fd5b906000526020600020016000915090505481565b60036020528060005260406000206000915054906101000a900460ff1681565b60015481565b6002602052806000526040600020600091509050806000015490806001018054610226906110fb565b80601f0160208091040260200160405190810160405280929190818152602001828054610252906110fb565b801561029f5780601f106102745761010080835404028352916020019161029f565b820191906000526020600020905b81548152906001019060200180831161028257829003601f168201915b5050505050908060020154905083565b6000600260008681526020019081526020016000206000015403610308576040517f08c379a00000000000000000000000000000000000000000000000000000000081526004016102ff90611178565b60405180910390fd5b60003360405160200161031b91906111e0565b6040516020818303038152906040528051906020012090506000610381858580806020026020016040519081016040528093929190818152602001838360200280828437600081840152601f19601f820116905080830192505050505050508484610901565b9050806103c3576040517f08c379a00000000000000000000000000000000000000000000000000000000081526004016103ba90611247565b60405180910390fd5b6001600360003373ffffffffffffffffffffffffffffffffffffffff1673ffffffffffffffffffffffffffffffffffffffff16815260200190815260200160002060006101000a81548160ff02191690831515021790555060026000878152602001908152602001600020600201600081548092919061044290611296565b9190505550826001819055507f7443492b9be7d0c78915e97bcabcb827676bf0292f1b78d919b33ca1a881a66b8660026000898152602001908152602001600020600101600260008a8152602001908152602001600020600201546040516104ac93929190611377565b60405180910390a1505050505050565b60008054906101000a900473ffffffffffffffffffffffffffffffffffffffff1673ffffffffffffffffffffffffffffffffffffffff163373ffffffffffffffffffffffffffffffffffffffff161461054a576040517f08c379a000000000000000000000000000000000000000000000000000000000815260040161054190611427565b60405180910390fd5b60405180606001604052806005548152602001828152602001600081525060026000600554815260200190815260200160002060008201518160000155602082015181600101908161059c91906115de565b5060408201518160020155905050600460055490806001815401808255809150506001900390600052602060002001600090919091909150557fe83b2a43e7e82d975c8a0a6d2f045153c869e111136a34d1889ab7b598e396a3600554826040516106089291906116b0565b60405180910390a16005600081548092919061062390611296565b919050555050565b6060806060600060048054905067ffffffffffffffff81111561065157610650610d18565b5b60405190808252806020026020018201604052801561067f5781602001602082028036833780820191505090505b509050600060048054905067ffffffffffffffff8111156106a3576106a2610d18565b5b6040519080825280602002602001820160405280156106d657816020015b60608152602001906001900390816106c15790505b509050600060048054905067ffffffffffffffff8111156106fa576106f9610d18565b5b6040519080825280602002602001820160405280156107285781602001602082028036833780820191505090505b50905060005b6004805490508110156108cb576002600060048381548110610753576107526116e0565b5b9060005260206000200154815260200190815260200160002060000154848281518110610783576107826116e0565b5b60200260200101818152505060026000600483815481106107a7576107a66116e0565b5b9060005260206000200154815260200190815260200160002060010180546107ce906110fb565b80601f01602080910402602001604051908101604052809291908181526020018280546107fa906110fb565b80156108475780601f1061081c57610100808354040283529160200191610847565b820191906000526020600020905b81548152906001019060200180831161082a57829003601f168201915b505050505083828151811061085f5761085e6116e0565b5b60200260200101819052506002600060048381548110610882576108816116e0565b5b90600052602060002001548152602001908152602001600020600201548282815181106108b2576108b16116e0565b5b602002602001018181525050808060010191505061072e565b50828282955095509550505050909192565b60008054906101000a900473ffffffffffffffffffffffffffffffffffffffff1681565b60008261090e8584610918565b1490509392505050565b60008082905060005b845181101561095d5761094e82868381518110610941576109406116e0565b5b6020026020010151610968565b91508080600101915050610921565b508091505092915050565b60008183106109805761097b8284610993565b61098b565b61098a8383610993565b5b905092915050565b600082600052816020526040600020905092915050565b6000604051905090565b600080fd5b600080fd5b6000819050919050565b6109d1816109be565b81146109dc57600080fd5b50565b6000813590506109ee816109c8565b92915050565b600060208284031215610a0a57610a096109b4565b5b6000610a18848285016109df565b91505092915050565b610a2a816109be565b82525050565b6000602082019050610a456000830184610a21565b92915050565b600073ffffffffffffffffffffffffffffffffffffffff82169050919050565b6000610a7682610a4b565b9050919050565b610a8681610a6b565b8114610a9157600080fd5b50565b600081359050610aa381610a7d565b92915050565b600060208284031215610abf57610abe6109b4565b5b6000610acd84828501610a94565b91505092915050565b60008115159050919050565b610aeb81610ad6565b82525050565b6000602082019050610b066000830184610ae2565b92915050565b6000819050919050565b610b1f81610b0c565b82525050565b6000602082019050610b3a6000830184610b16565b92915050565b600081519050919050565b600082825260208201905092915050565b60005b83811015610b7a578082015181840152602081019050610b5f565b60008484015250505050565b6000601f19601f8301169050919050565b6000610ba282610b40565b610bac8185610b4b565b9350610bbc818560208601610b5c565b610bc581610b86565b840191505092915050565b6000606082019050610be56000830186610a21565b8181036020830152610bf78185610b97565b9050610c066040830184610a21565b949350505050565b600080fd5b600080fd5b600080fd5b60008083601f840112610c3357610c32610c0e565b5b8235905067ffffffffffffffff811115610c5057610c4f610c13565b5b602083019150836020820283011115610c6c57610c6b610c18565b5b9250929050565b610c7c81610b0c565b8114610c8757600080fd5b50565b600081359050610c9981610c73565b92915050565b60008060008060608587031215610cb957610cb86109b4565b5b6000610cc7878288016109df565b945050602085013567ffffffffffffffff811115610ce857610ce76109b9565b5b610cf487828801610c1d565b93509350506040610d0787828801610c8a565b91505092959194509250565b600080fd5b7f4e487b7100000000000000000000000000000000000000000000000000000000600052604160045260246000fd5b610d5082610b86565b810181811067ffffffffffffffff82111715610d6f57610d6e610d18565b5b80604052505050565b6000610d826109aa565b9050610d8e8282610d47565b919050565b600067ffffffffffffffff821115610dae57610dad610d18565b5b610db782610b86565b9050602081019050919050565b82818337600083830152505050565b6000610de6610de184610d93565b610d78565b905082815260208101848484011115610e0257610e01610d13565b5b610e0d848285610dc4565b509392505050565b600082601f830112610e2a57610e29610c0e565b5b8135610e3a848260208601610dd3565b91505092915050565b600060208284031215610e5957610e586109b4565b5b600082013567ffffffffffffffff811115610e7757610e766109b9565b5b610e8384828501610e15565b91505092915050565b600081519050919050565b600082825260208201905092915050565b6000819050602082019050919050565b610ec1816109be565b82525050565b6000610ed38383610eb8565b60208301905092915050565b6000602082019050919050565b6000610ef782610e8c565b610f018185610e97565b9350610f0c83610ea8565b8060005b83811015610f3d578151610f248882610ec7565b9750610f2f83610edf565b925050600181019050610f10565b5085935050505092915050565b600081519050919050565b600082825260208201905092915050565b6000819050602082019050919050565b600082825260208201905092915050565b6000610f9282610b40565b610f9c8185610f76565b9350610fac818560208601610b5c565b610fb581610b86565b840191505092915050565b6000610fcc8383610f87565b905092915050565b6000602082019050919050565b6000610fec82610f4a565b610ff68185610f55565b93508360208202850161100885610f66565b8060005b8581101561104457848403895281516110258582610fc0565b945061103083610fd4565b925060208a0199505060018101905061100c565b50829750879550505050505092915050565b600060608201905081810360008301526110708186610eec565b905081810360208301526110848185610fe1565b905081810360408301526110988184610eec565b9050949350505050565b6110ab81610a6b565b82525050565b60006020820190506110c660008301846110a2565b92915050565b7f4e487b7100000000000000000000000000000000000000000000000000000000600052602260045260246000fd5b6000600282049050600182168061111357607f821691505b602082108103611126576111256110cc565b5b50919050565b7f43616e64696461746520646f6573206e6f742065786973742e00000000000000600082015250565b6000611162601983610b4b565b915061116d8261112c565b602082019050919050565b6000602082019050818103600083015261119181611155565b9050919050565b60008160601b9050919050565b60006111b082611198565b9050919050565b60006111c2826111a5565b9050919050565b6111da6111d582610a6b565b6111b7565b82525050565b60006111ec82846111c9565b60148201915081905092915050565b7f496e76616c6964204d65726b6c652070726f6f662e0000000000000000000000600082015250565b6000611231601583610b4b565b915061123c826111fb565b602082019050919050565b6000602082019050818103600083015261126081611224565b9050919050565b7f4e487b7100000000000000000000000000000000000000000000000000000000600052601160045260246000fd5b60006112a1826109be565b91507fffffffffffffffffffffffffffffffffffffffffffffffffffffffffffffffff82036112d3576112d2611267565b5b600182019050919050565b60008190508160005260206000209050919050565b60008154611300816110fb565b61130a8186610b4b565b94506001821660008114611325576001811461133b5761136e565b60ff19831686528115156020028601935061136e565b611344856112de565b60005b8381101561136657815481890152600182019150602081019050611347565b808801955050505b50505092915050565b600060608201905061138c6000830186610a21565b818103602083015261139e81856112f3565b90506113ad6040830184610a21565b949350505050565b7f4f6e6c792061646d696e2063616e20706572666f726d2074686973206163746960008201527f6f6e2e0000000000000000000000000000000000000000000000000000000000602082015250565b6000611411602383610b4b565b915061141c826113b5565b604082019050919050565b6000602082019050818103600083015261144081611404565b9050919050565b60006020601f8301049050919050565b600082821b905092915050565b6000600883026114947fffffffffffffffffffffffffffffffffffffffffffffffffffffffffffffffff82611457565b61149e8683611457565b95508019841693508086168417925050509392505050565b6000819050919050565b60006114db6114d66114d1846109be565b6114b6565b6109be565b9050919050565b6000819050919050565b6114f5836114c0565b611509611501826114e2565b848454611464565b825550505050565b600090565b61151e611511565b6115298184846114ec565b505050565b5b8181101561154d57611542600082611516565b60018101905061152f565b5050565b601f82111561159257611563816112de565b61156c84611447565b8101602085101561157b578190505b61158f61158785611447565b83018261152e565b50505b505050565b600082821c905092915050565b60006115b560001984600802611597565b1980831691505092915050565b60006115ce83836115a4565b9150826002028217905092915050565b6115e782610b40565b67ffffffffffffffff811115611600576115ff610d18565b5b61160a82546110fb565b611615828285611551565b600060209050601f8311600181146116485760008415611636578287015190505b61164085826115c2565b8655506116a8565b601f198416611656866112de565b60005b8281101561167e57848901518255600182019150602085019450602081019050611659565b8683101561169b5784890151611697601f8916826115a4565b8355505b6001600288020188555050505b505050505050565b60006040820190506116c56000830185610a21565b81810360208301526116d78184610b97565b90509392505050565b7f4e487b7100000000000000000000000000000000000000000000000000000000600052603260045260246000fdfea26469706673582212209b1e39fccb2e7990a218113fefb506d6b3b8f38e646bc6bc4ee70ecd1338b11764736f6c634300081b0033",
  "linkReferences": {},
  "deployedLinkReferences": {}
}